S012000073656E736F72546573742E73726563D8
S1130000CAC0E4C0E3C0E2C0E1C0E0C0DFC0DEC0FB
S11300102AC5DCC0DBC0DAC0D9C0D8C0D7C0D6C0BE
S1130020D5C0D4C0D3C0BDC4C2C4CDC4C6C4D1C459
S1130030D6C4DBC459C58CC5D8C5BEC5FCC52BC642
S113004055C608000000BE922449123EABAAAA2A53
S1130050BECDCCCC4C3E00000080BEABAAAAAA3ECA
S113006000000000BF000000803F00000000000806
S11300704178D3BB4387D1133D190E3CC3BD4282A3
S1130080AD2B3E68EC8276BED98FE1A93E4C80EF61
S1130090FFBE01C4FF7F3F000000000000407A1053
S11300A0F35A00A0724E18090010A5D4E80000E825
S11300B07648170000E40B54020000CA9A3B000083
S11300C000E1F505000080969800000040420F0012
S11300D00000A08601000000102700000000E803D3
S11300E0000000006400000000000A00000000009E
S11300F00100000000002C76D888DC674F0823DF5D
S1130100C1DFAE59E1B1B796E5E3E453C63AE6512F
S1130110997696E8E6C28426EB898C9B62ED407C56
S11301206FFCEFBC9C9F40F2BAA56FA5F490055AF2
S11301302AF75C936B6CF9676DC11BFCE0E40D4717
S1130140FEF520E6B500D0ED902E0300943577053A
S11301500080841E080000204E0A000000C80C33F2
S11301603333330F986E12831141EF8D2114893B81
S1130170E65516CFFEE6DB18D1844B381BF77C1D01
S1130180901DA4BBE424203284725E228100C9F154
S113019024ECA1E53D2711241FBECFE5D4E0DEBF4A
S11301A0CDBF10E0A0E6B0E0E8EFFAE102C00590B0
S11301B00D92A03FB107D9F721E0A0EFB0E001C054
S11301C01D92AC30B207E1F7AAD394CC19CF806466
S11301D087B987EC86B9349BFECF349A84B195B144
S11301E008959F92AF92BF92CF92DF92EF92FF92C7
S11301F00F931F93CF93DF935C01962E009789F0A2
S11302008C01C0E0D0E0C12CD12C7601892DDFDF38
S1130210C80ED91EE11CF11C21960C171D07B1F75D
S113022003C0C12CD12C7601C701B60121D86B01C2
S11302307C01B50180E090E01BD89B01AC01C701B3
S1130240B60182D7DF91CF911F910F91FF90EF906C
S1130250DF90CF90BF90AF909F900895CF92DF92A0
S1130260EF92FF92FC01892B99F06B01E12CF12CA8
S1130270AFEFB3E0A701960180D99F0140E050E0C1
S113028060D9CA01B9016C197D098E099F0903C09F
S113029060E070E0CB01FF90EF90DF90CF90089585
S11302A0CF92DF92EF92FF920F931F93CF93DF933E
S11302B000D000D01F92CDB7DEB77C016B01FE01E8
S11302C0319685E0DF011D928A95E9F7A29AAA9AF0
S11302D09C99F1C00EC09C9B0CC0BFEFE9EFF0E00D
S11302E0B150E040F040E1F700C000002150310976
S11302F091F7AA9841110AC02FEF30EE50E0215037
S113030030405040E1F700C000000BC0413049F4D8
S11303108FEF99EFA0E081509040A040E1F700C03A
S11303200000AA9AA298B5EDBA95F1F700009A993F
S1130330AEC0EFE3F1E03197F1F700C000009A9B03
S1130340A8C08FE391E00197F1F700C000008E018F
S11303500F5F1F4FBE016A5F7F4FA1E0B0E01FC077
S11303609C9B02C09A9BFCCFE0EAEA95F1F79A9B2A
S11303700BC0FD01022E02C0EE0FFF1F0A94E2F72C
S11303809E2B02C09C9B02C09A99FCCF215031093C
S113039048F7F80191938F01E617F70721F027E05A
S11303A030E090E0DFCFA29AAA9A9C9978C00EC060
S11303B09C9B0CC0FFEF59EF80E0F150504080400F
S11303C0E1F700C000002150310991F719812A8119
S11303D06B818C81912F920F960F980F3D8193130F
S11303E05AC0411116C070E080E090E041D7D701B7
S11303F06D937D938D939C931397612F70E080E0B0
S113040090E036D7F601608371838283938380E022
S11304105EC0413009F041C030E0A901512B8A018E
S113042090E0DC01B62BBD01BB2394F47F7780E020
S113043090E01ED720E030E040E251E485D6DC01B4
S1130440CB01B058F70180839183A283B3830FC09B
S1130450BD0180E090E00CD720E030E040E251E4C0
S113046073D6D7016D937D938D939C931397B801A5
S113047080E090E0FDD620E030E040E251E464D634
S1130480F601608371838283938380E020C08FEFC1
S11304901EC08FEF1CC08FEF1AC080E018C0FFEFA2
S11304A029EF30E0F15020403040E1F700C0000077
S11304B024E030E07DCF5FEF89EF90E05150804041
S11304C09040E1F700C0000024E030E004CF0F903A
S11304D00F900F900F900F90DF91CF911F910F917C
S11304E0FF90EF90DF90CF900895DADE0895AB98F7
S11304F0A39A8FE797E00197F1F700C00000A39853
S1130500EFEEF0E03197F1F700C0000083B3EFE8BD
S1130510F6E03197F1F700C0000088700895AB98B9
S1130520A39A95E09A95F1F700008111A3988FEEB4
S113053090E00197F1F700C00000A3980895AB98EC
S1130540A39A85E08A95F1F70000A3989AE49A9516
S1130550F1F700C083B390EF9A95F1F783FB8827F6
S113056080F90895CF93DF939C990AC00FC09C9B98
S11305700DC08C2F8170D3DFC695D150C1F706C052
S1130580C82F8170CCDFC695D7E0F1CFDF91CF9132
S11305900895CF93DF93D8E0C0E0D1DF20E8829FB5
S11305A0C0011124C695C82BD150B9F78C2FDF9107
S11305B0CF910895CF939BDF8CECD4DF84E4D2DF1A
S11305C002C09C9B03C0BBDF8823D9F390DF8CEC73
S11305D0C9DF8EEBC7DFDDDFC82FDBDF6C2F70E0F8
S11305E0782BCB018827987F8115984F69F47195F2
S11305F06195710980E090E03BD620E030E040E86E
S11306005DE309D7905808C080E090E031D620E03F
S113061030E040E85DE3FFD6CF910895959885E0FA
S11306208A95F1F70000959A95E09A95F1F7000004
S113063095988FE99FE00197F1F700C000000895B5
S113064080FF02C0939A01C0939881FF02C0929ADE
S113065001C0929882FF02C0919A01C0919883FFD1
S113066002C0909A01C09098D9DF0895CF93C82F03
S11306709798969882958F70E3DF8C2FE1DFCF9166
S11306800895CF93C82F979A969882958F70D8DF44
S11306908C2FD6DFCF9108950F931F93CF93FC0136
S11306A08081882351F08F01C0E0EBDFCF5FF80138
S11306B0EC0FF11D80818111F8CFCF911F910F9123
S11306C00895CF93DF9300D000D0CDB7DEB790E884
S11306D0998390EC9A8394E99B8394ED9C83FE0127
S11306E0E60FF11D9181890FC1DF0F900F900F90DC
S11306F00F90DF91CF91089581E0B8DF8FE39FE100
S11307000197F1F700C0000008958F9A8E9A8D9A90
S11307108B9A8A9A899A889A2FEF80E792E02150DF
S113072080409040E1F700C0000097989598969813
S113073083E086DF8FE19EE40197F1F700C00000BB
S113074083E07EDF8FE19EE40197F1F700C00000B3
S113075083E076DF8FE99FE00197F1F700C00000A6
S113076082E06EDF88E282DF8CE080DFC5DF86E036
S11307707DDF0895AF92BF92CF92DF92EF92FF9206
S11307800F931F93CF93082F5B01FB01019000206F
S1130790E9F731977F01E61AF70AFF2480E190E038
S11307A08E199F096C011AF42FEFC21AD20AD5943C
S11307B0C7941C2DC0E080E264DFCF5F1C17D8F71C
S11307C0602F8C2D7EDFC50167DF00E110E00C197E
S11307D011090E191F09101611064CF4C0E080E22D
S11307E050DFCF5F8C2F90E080179107C4F3CF9137
S11307F01F910F91FF90EF90DF90CF90BF90AF903B
S11308000895CF93C22F4330F9F028F4413041F0DA
S1130810423081F037C0443009F1453049F132C0EB
S113082050DFC11103C084E690E002C080E690E08E
S113083033DF2CC046DFC11103C08CE690E002C058
S113084088E690E029DF22C03CDFC11103C084E7C1
S113085090E002C080E790E01FDF18C032DFC111D2
S113086003C08CE790E002C088E790E015DF0EC07B
S113087028DFC11103C084E890E002C080E890E062
S11308800BDF04C01EDF8BED90E006DFCF910895EF
S11308908F929F92AF92BF92CF92DF92EF92FF928C
S11308A00F931F93CF93DF934B015C01EA01C901BE
S11308B0B801E0D46B017C01C501B401DBD49B0118
S11308C0AC01C701B60140D466D56B017C01BE0101
S11308D0DD0F880B990BCED49B01AC01C701B60187
S11308E033D42FE03FEC4BE55BE3CAD39B01AC016F
S11308F060E070E080E89FE327D423E333E948E82D
S113090053E4BDD3DF91CF911F910F91FF90EF90EE
S1130910DF90CF90BF90AF909F908F900895F5DEB9
S11309201092FA00E9DE60E080E0CBDE68E870E077
S113093080E020DFA59AAD9AB898A49884B38C7F00
S113094084BB8CE29FEC9DBD8CBD8EB583608EBD57
S113095089B78B7F89BFF894B0994EC02FEF89EF88
S113096090E0215080409040E1F700C00000B09931
S113097041C08091F90081113DC08091FA00E1E00D
S1130980E80FE093FA00E73018F01092FA0009C07B
S11309908E2F90E08730910568F5FC01ED5EFF4FE6
S11309A00994AADE68E870E080E0E4DE23C0A4DEF7
S11309B062E970E080E0DEDE1DC09EDE6CE970E07E
S11309C080E0D8DE17C098DE66EA70E080E0D2DE10
S11309D011C092DE60EB70E080E0CCDE0BC08CDEF8
S11309E06AEB70E080E0C6DE05C086DE64EC70E091
S11309F080E0C0DEB09BFECF9C99AECF2FEF89EF95
S1130A0090E0215080409040E1F700C000009C99A4
S1130A1027C08091F9008823C1F0F89489B78B7FAF
S1130A2089BF1092F9001092F80020E040E060E0E5
S1130A3080E0E7DE21E04091F80060E08DE0E1DE57
S1130A406EEC70E081E096DE0BC06FED70E081E04B
S1130A5091DE81E08093F90089B7846089BF78943E
S1130A609C9BFECF79CF1F920F920FB60F92112449
S1130A700F931F932F933F934F935F936F937F93A2
S1130A808F939F93AF93BF93EF93FF938CE29FEC6D
S1130A909DBD8CBD8091F900882309F451C120E0EB
S1130AA04091F80060E080E0ACDE21E04091F80085
S1130AB060E08DE0A6DE8091F8008F5F8093F800FF
S1130AC0883018F01092F8003BC1873009F038C123
S1130AD0E091FA008E2F90E08730910508F030C144
S1130AE0FC01E65EFF4F099440E060EF70E084EFA4
S1130AF090E0FBDC8F3F09F423C16091F400709116
S1130B00F5008091F6009091F7000BEF10E022E0E1
S1130B1040E06BD561E080E0D4DDC801BDDD8FED40
S1130B20B0DD83EE90E0B8DD6091F0007091F100EB
S1130B308091F2009091F30022E040E056D561E00C
S1130B4088E0BFDDC801A8DD89EE90E0A5DDF8C02E
S1130B5041E060EF70E084EF90E0C7DC8F3F09F480
S1130B60EFC06091F4007091F5008091F6009091CF
S1130B70F7000BEF10E022E040E037D561E080E0C1
S1130B80A0DDC80189DD8FED7CDD83EE90E084DD9E
S1130B906091F0007091F1008091F2009091F30067
S1130BA022E040E022D561E088E08BDDC80174DDFD
S1130BB089EE90E071DDC4C0FDDC6093F4007093B5
S1130BC0F5008093F6009093F7000BEF10E022E01D
S1130BD040E00BD561E080E074DDC8015DDD8FEDA0
S1130BE050DD83EE90E058DDABC060E084E690E039
S1130BF0F8DA20E030E04AEF53E40DD420E030ECA2
S1130C004FE754E4A1D26093F4007093F50080930D
S1130C10F6009093F7000BEF10E022E040E0E5D4FB
S1130C2061E080E04EDDC80137DD8FED2ADD83EE23
S1130C3090E032DD85C060EF70E084EF90E06CD12D
S1130C406091F4007091F5008091F6009091F700A6
S1130C500BEF10E022E040E0C8D461E080E031DD39
S1130C60C8011ADD8FED0DDD83EE90E015DD609196
S1130C70F0007091F1008091F2009091F30022E075
S1130C8040E0B3D461E088E01CDDC80105DD89EEF5
S1130C9090E002DD55C061E084E690E0A2DABCD2C7
S1130CA0DC01CB0160E177E2D9DA8B019C014EE6ED
S1130CB05FE060E177E280E090E0EADD6093F400D9
S1130CC07093F5008093F6009093F7000BEF10E01B
S1130CD022E040E08AD461E080E0F3DCC801DCDC9F
S1130CE08FEDCFDC83EE90E0D7DC2AC061E084E6B0
S1130CF090E077DA91D2DC01CB0160E177E2AEDA01
S1130D008B019C014EE65FE060EA76E881E090E0CA
S1130D10BFDD6093F4007093F5008093F600909328
S1130D20F7000BEF10E022E040E05FD461E080E0E8
S1130D30C8DCC801B1DC8FEDA4DC83EE90E0ACDC50
S1130D40FF91EF91BF91AF919F918F917F916F919F
S1130D505F914F913F912F911F910F910F900FBE73
S1130D600F901F901895BA9AB99AC29A8AE08A95F8
S1130D70F1F700C0C19A8AE08A95F1F700C0C298E1
S1130D808AE08A95F1F700C0C19885E08A95F1F769
S1130D900000C19A8AE08A95F1F700C0C29A8AE0FD
S1130DA08A95F1F700C0C198089545E14A95F1F795
S1130DB00000BA9A27E030E090E0AC01022E02C0B5
S1130DC0559547950A94E2F740FF02C0C29A01C0C4
S1130DD0C29845E14A95F1F70000C19A45E14A9568
S1130DE0F1F70000C1982115310581F4C29ABA982F
S1130DF082E89AE1A6E0B0E006C00197A109B10932
S1130E0041F09C9B06C0B299F8CF03C02150310930
S1130E10A0F685E18A95F1F70000C19A95E19A95CB
S1130E20F1F70000C1980895BA9AC29A89E090E057
S1130E3025E12A95F1F70000C19A25E12A95F1F7F9
S1130E400000C1980197A1F78EDF0895FC0127E007
S1130E5030E081E090E0C19A45E14A95F1F7000065
S1130E60B29B0BC06081AC01022E02C0440F551F1F
S1130E700A94E2F7462B40830BC0AC01022E02C059
S1130E80440F551F0A94E2F740955081452340834F
S1130E90C19845E14A95F1F7000021503109D8F68F
S1130EA00895BA9AC29885E18A95F1F70000C19A2B
S1130EB085E18A95F1F70000C19885E18A95F1F7FB
S1130EC00000C29ABA980895CF93DF9300D0CDB7AB
S1130ED0DEB719821A82C29ABA9882E89AE1A6E029
S1130EE0B0E006C00197A109B10921F09C9B02C0A2
S1130EF0B299F8CFCE010296A9DFD3DFCE010196D5
S1130F00A5DF8A8190E0982F88272981822B0F9072
S1130F100F90DF91CF9108954F925F926F927F92DD
S1130F208F929F92AF92BF92CF92DF92EF92FF92F5
S1130F300F931F93CF93DF938C01EB0114DF83E0B6
S1130F4034DF8FE391E00197F1F700C00000BCDFCC
S1130F50BC0180E090E08CD12AE037ED43E25CE311
S1130F605AD22DE33AE040E252E489D0F80160839A
S1130F7071838283938358DF85E017DF8FE391E0E9
S1130F800197F1F700C000009FDFBC0180E090E012
S1130F906FD16B017C0124E533EE45E25DE33BD286
S1130FA020E030E040E850E46AD04B015C01A70146
S1130FB09601C701B6012FD222EA37EE4BE356E37E
S1130FC02AD29B01AC01C501B40159D04B015C018B
S1130FD0688379838A839B8320E030E048EC51E482
S1130FE0F801608171818281938149D02B013C0198
S1130FF02CEA35EC47EA58E3C701B6010CD22AE0E3
S113100037ED43E25CE33CD09B01AC01C301B20188
S113101002D2A501940134D0688379838A839B83A7
S113102003DF9C990FC01AC09C9B18C0FFEF29EFE7
S113103030E0F15020403040E1F700C0000001975B
S113104099F70CC04FEF89EF90E0415080409040F9
S1131050E1F700C0000084E090E0E6CFDF91CF919B
S11310601F910F91FF90EF90DF90CF90BF90AF90C2
S11310709F908F907F906F905F904F9008955058FD
S1131080BB27AA270ED048C139D130F03ED120F079
S113109031F49F3F11F41EF42EC10EF4E095E7FBEA
S11310A024C1E92F4AD180F3BA1762077307840772
S11310B0950718F071F49EF562C10EF4E0950B2EBD
S11310C0BA2FA02D0B01B90190010C01CA01A00196
S11310D01124FF27591B99F0593F50F4503E68F1F1
S11310E01A16F040A22F232F342F4427585FF3CF32
S11310F0469537952795A795F0405395C9F77EF403
S11311001F16BA0B620B730B840BBAF09150A1F04B
S1131110FF0FBB1F661F771F881FC2F70EC0BA0FD1
S1131120621F731F841F48F4879577956795B79559
S1131130F7959E3F08F0B3CF9395880F08F0992751
S1131140EE0F9795879508950CD0E6C0DED040F059
S1131150D5D030F021F45F3F19F0C7C0511110C150
S1131160CAC0EBD098F39923C9F35523B1F3951B67
S1131170550BBB27AA2762177307840738F09F5FB4
S11311805F4F220F331F441FAA1FA9F333D00E2E23
S11311903AF0E0E830D091505040E695001CCAF790
S11311A029D0FE2F27D0660F771F881FBB1F261755
S11311B037074807AB07B0E809F0BB0B802DBF0128
S11311C0FF2793585F4F2AF09E3F510568F08DC06A
S11311D0D7C05F3FECF3983EDCF38695779567952F
S11311E0B795F7959F5FC9F7880F911D96958795D9
S11311F097F90895E1E0660F771F881FBB1F6217F8
S113120073078407BA0720F0621B730B840BBA0BB5
S1131210EE1F88F7E095089598D088F09F5790F0D6
S1131220B92F9927B751A0F0D1F0660F771F881F07
S1131230991F1AF0BA95C9F712C0B13081F09FD046
S1131240B1E008959CC0672F782F8827B85F39F0E4
S1131250B93FCCF3869577956795B395D9F73EF466
S113126090958095709561957F4F8F4F9F4F08950E
S1131270E89409C097FB3EF490958095709561952C
S11312807F4F8F4F9F4F9923A9F0F92F96E9BB27E2
S11312909395F695879577956795B795F111F8CF5E
S11312A0FAF4BB0F11F460FF1BC06F5F7F4F8F4FC9
S11312B09F4F16C0882311F096E911C0772321F0BF
S11312C09EE8872F762F05C0662371F096E8862F57
S11312D070E060E02AF09A95660F771F881FDAF7AE
S11312E0880F9695879597F9089597F99F6780E8F1
S11312F070E060E008959FEF80EC089500240A9464
S11313001616170618060906089500240A941216DC
S11313101306140605060895092E0394000C11F40F
S1131320882352F0BB0F40F4BF2B11F460FF04C0BC
S11313306F5F7F4F8F4F9F4F089557FD9058440F15
S1131340551F59F05F3F71F04795880F97FB991F20
S113135061F09F3F79F087950895121613061406DD
S1131360551FF2CF4695F1DF08C01616170618066A
S1131370991FF1CF86957105610508940895E89445
S1131380BB2766277727CB0197F908950EF0A6C0EF
S1131390B2CF6894AACFD9DFC8F39923D1F3C6F3A7
S11313A0DF93CF931F930F93FF92C92FDD278823D9
S11313B02AF02197660F771F881FDAF720E030E0C4
S11313C040E85FEB9FE3883920F0803E30F02196BF
S11313D08F7756DEE2E4F0E003C052DEEFE6F0E0A1
S11313E08BD08B01BE01EC01FB2E6F5771097595F3
S11313F0771F880B990B3EDF28E132E741E35FE377
S113140016D0AF2D9801AE01FF900F911F91CF918F
S1131410DF9147DE81CF0BD07FCF70DF28F075DFFF
S113142018F0952309F061CF66CF1124A9CF85DF89
S1131430A0F3959FD1F3950F50E0551F629FF001E3
S1131440729FBB27F00DB11D639FAA27F00DB11D3C
S1131450AA1F649F6627B00DA11D661F829F2227C5
S1131460B00DA11D621F739FB00DA11D621F839F4C
S1131470A00D611D221F749F3327A00D611D231F22
S1131480849F600D211D822F762F6A2F11249F5770
S113149050408AF0E1F088234AF0EE0FFF1FBB1F93
S11314A0661F771F881F91505040A9F79E3F510532
S11314B070F01BCF65CF5F3FECF3983EDCF386956D
S11314C077956795B795F795E7959F5FC1F7FE2BDD
S11314D0880F911D9695879597F908959F3F31F050
S11314E0915020F4879577956795B795880F911D4E
S11314F09695879597F90895DF93CF931F930F934C
S1131500FF92EF92DF927B018C01689405C0DA2E82
S1131510EF018DDFFE01E894A59125913591459168
S11315205591AEF3EF01BDDDFE019701A801DA94F8
S113153079F7DF90EF90FF900F911F91CF91DF919A
S11315400895052E97FB16F400940FD057FD05D08F
S11315501ED007FC02D046F408C050954095309543
S113156021953F4F4F4F5F4F08959095809570950B
S113157061957F4F8F4F9F4F08952BD0A59F900D5E
S1131580B49F900DA49F800D911D11240895A1E294
S11315901A2EAA1BBB1BFD010DC0AA1FBB1FEE1FE9
S11315A0FF1FA217B307E407F50720F0A21BB30B34
S11315B0E40BF50B661F771F881F991F1A9469F7B0
S11315C060957095809590959B01AC01BD01CF010C
S11315D00895A29FB001B39FC001A39F01D0B29F01
S11315E0700D811D1124911D0895EF920F931F9387
S11315F0CF93DF93E80147FD02C034E001C034E13A
S1131600042E000C550B57FF03C051954195510909
S1131610E32E022F242FAE0107D0CE01DF91CF910C
S11316201F910F91EF900895A9E0B0E0E9E1FBE08C
S113163030C26A01122FB02E2BE3201720F0FF24B2
S1131640F394F00E02C02CE3F22E0F2D27E0AE012E
S11316504F5F5F4F40D1BC014981842F8970813035
S113166031F0E1FC06C0E0FE06C090E205C09DE258
S113167003C09BE201C090E05E2D507143FF3CC06B
S1131680911102C083E001C084E0811718F4212F76
S1131690281B01C020E051110BC0F601822F30E25B
S11316A0882319F031938150FBCFC20ED11C20E066
S11316B0992329F0D6019C93F60131966F01C60156
S11316C00396E2FE0AC03EE4D6013C9341E411963F
S11316D04C93119712963C9306C03EE6F601308374
S11316E041E641833283FC01322F40E2332309F483
S11316F042C041933150FACF42FF44C0911102C01D
S113170083E001C084E0811718F4212F281B01C055
S113171020E051110BC0F601822F30E2882319F02A
S113172031938150FBCFC20ED11C20E0992329F0C4
S1131730D6019C93F60131966F01C6010396E2FE31
S11317400BC039E4D6013C933EE411963C931197C7
S113175036E412963C9307C039E6F60130833EE640
S1131760318336E63283FC01322F40E2332319F011
S113177041933150FBCFFC01E20FF11D10828EEF3B
S11317809FEFA6C021E030E0911102C020E030E0DC
S1131790161617061CF4FB01319602C0E1E0F0E0D6
S11317A02E0F3F1FBB2021F0EB2DF0E0319602C03D
S11317B0E0E0F0E02E0F3F1FE12FF0E02E173F078F
S11317C01CF4121B212F01C020E08E2D887159F4C6
S11317D0F601822F30E2882319F031938150FBCF38
S11317E0C20ED11C20E0992329F0D6019C93F60166
S11317F031966F0151110BC0F601822F90E38823BB
S113180019F091938150FBCFC20ED11C20E00F2D13
S1131810060F9A81342F307144FF03C0913309F4C9
S11318200150101624F4093018F008E001C001E05A
S1131830AB0177FF02C040E050E0FB01E41BF50B75
S1131840A1E0B0E0AC0FBD1FEA0FFB1F8EE2A82E93
S11318504B01801A91080B2D10E011950195110987
S11318604F3FBFEF5B0721F4D601AC9211966D0197
S1131870641775072CF08416950614F4818101C051
S113188080E3415051093196D60111967D014017EC
S1131890510724F0D6018C936701E2CF64177507D2
S11318A039F4963320F4953319F4311101C081E3EE
S11318B0F6018083F701822F90E2882319F0919337
S11318C08150FBCFF701E20FF11D108280E090E020
S11318D02996ECE0FAC0283008F027E03327DA0133
S11318E0990F311D87FD916000966105710539F4EA
S11318F032602E5F3D9330E32A95E1F708959F3FD0
S113190030F080387105610509F03C5F3C5F3D9320
S1131910913008F08068911DDF93CF931F930F934C
S1131920FF92EF92192F987F9695E92F96959695A9
S1131930E90FFF27EA50FF4F99273327EE24FF24AE
S1131940A701E70105900894079428F4360FE71ED1
S1131950F81E491F511D660F771F881F991F069493
S1131960A1F70590079428F4E70EF81E491F561FA7
S1131970C11D770F881F991F661F0694A1F7059054
S1131980079428F4F80E491F561FC71FD11D880F4E
S1131990991F661F771F0694A1F70590079420F4FA
S11319A0490F561FC71FD81F990F661F771F881F1F
S11319B00694A9F784911095177041F0D695C795B0
S11319C057954795F794E7941A95C1F7ECE9F0E039
S11319D068941590159135916591959105907FE2E4
S11319E07395E118F10A430B560BC90BD009C0F7E4
S11319F0E10CF11E431F561FC91FD01D7EF4703326
S1131A0011F48A95E6CFE894015030F0080F0AF4F7
S1131A100027021708F4202F2395022F7A3328F089
S1131A2079E37D932A95E9F710C07D932A9589F689
S1131A30069497956795379517951794E118F10AC9
S1131A40430B560BC90BD00998F023957E917395DF
S1131A507A3308F070E37C932013B8F77E917061B9
S1131A607D9330F0839571E37D9370E32A95E1F7DC
S1131A701124EF90FF900F911F91CF91DF9199273F
S1131A8087FD909508952F923F924F925F926F92A7
S1131A907F928F929F92AF92BF92CF92DF92EF92FA
S1131AA0FF920F931F93CF93DF93CDB7DEB7CA1B7B
S1131AB0DB0B0FB6F894DEBF0FBECDBF09942A88A6
S1131AC0398848885F846E847D848C849B84AA844E
S1131AD0B984C884DF80EE80FD800C811B81AA81DB
S1131AE0B981CE0FD11D0FB6F894DEBF0FBECDBFA6
S10B1AF0ED010895F894FFCF05
S1131AF83E20200020203C003E3E2000203C3C00AC
S1131B083E3E3E003C3C3C00203E3E003C3C200027
S1131B1820203E003C20200020204448543131201D
S1131B2820002044485432312F32320020445331AB
S1131B383842323020002020204C4D3335202000FC
S1131B482053485431782F37780020204E5443319D
S1131B58304B200020204E54433130304B0020209D
S1131B682020202020202020202020202020002E7B
S1131B782E2E004320202020002520202020000095
S9030000FC
